{
  "_format": "hh-sol-artifact-1",
  "contractName": "TaskEscrow",
  "sourceName": "src/TaskEscrow.sol",
  "abi": [
    {
      "inputs": [
        {
          "internalType": "address",
          "name": "_sbtContract",
          "type": "address"
        },
        {
          "internalType": "uint32",
          "name": "_voteThreshold",
          "type": "uint32"
        }
      ],
      "stateMutability": "nonpayable",
      "type": "constructor"
    },
    {
      "inputs": [
        {
          "internalType": "address",
          "name": "owner",
          "type": "address"
        }
      ],
      "name": "OwnableInvalidOwner",
      "type": "error"
    },
    {
      "inputs": [
        {
          "internalType": "address",
          "name": "account",
          "type": "address"
        }
      ],
      "name": "OwnableUnauthorizedAccount",
      "type": "error"
    },
    {
      "inputs": [],
      "name": "ReentrancyGuardReentrantCall",
      "type": "error"
    },
    {
      "anonymous": false,
      "inputs": [
        {
          "indexed": true,
          "internalType": "uint256",
          "name": "taskId",
          "type": "uint256"
        },
        {
          "indexed": true,
          "internalType": "address",
          "name": "raisedBy",
          "type": "address"
        }
      ],
      "name": "DisputeRaised",
      "type": "event"
    },
    {
      "anonymous": false,
      "inputs": [
        {
          "indexed": true,
          "internalType": "uint256",
          "name": "taskId",
          "type": "uint256"
        },
        {
          "indexed": false,
          "internalType": "enum TaskEscrow.VoteChoice",
          "name": "outcome",
          "type": "uint8"
        },
        {
          "indexed": false,
          "internalType": "uint256",
          "name": "payoutAmount",
          "type": "uint256"
        }
      ],
      "name": "DisputeResolved",
      "type": "event"
    },
    {
      "anonymous": false,
      "inputs": [
        {
          "indexed": true,
          "internalType": "uint256",
          "name": "taskId",
          "type": "uint256"
        },
        {
          "indexed": true,
          "internalType": "address",
          "name": "requester",
          "type": "address"
        },
        {
          "indexed": true,
          "internalType": "address",
          "name": "helper",
          "type": "address"
        },
        {
          "indexed": false,
          "internalType": "uint256",
          "name": "amount",
          "type": "uint256"
        }
      ],
      "name": "EscrowCreated",
      "type": "event"
    },
    {
      "anonymous": false,
      "inputs": [
        {
          "indexed": true,
          "internalType": "uint256",
          "name": "taskId",
          "type": "uint256"
        },
        {
          "indexed": true,
          "internalType": "address",
          "name": "helper",
          "type": "address"
        },
        {
          "indexed": false,
          "internalType": "uint256",
          "name": "amount",
          "type": "uint256"
        }
      ],
      "name": "EscrowReleased",
      "type": "event"
    },
    {
      "anonymous": false,
      "inputs": [
        {
          "indexed": false,
          "internalType": "uint256",
          "name": "oldFee",
          "type": "uint256"
        },
        {
          "indexed": false,
          "internalType": "uint256",
          "name": "newFee",
          "type": "uint256"
        }
      ],
      "name": "FeeBasisPointsUpdated",
      "type": "event"
    },
    {
      "anonymous": false,
      "inputs": [
        {
          "indexed": true,
          "internalType": "address",
          "name": "to",
          "type": "address"
        },
        {
          "indexed": false,
          "internalType": "uint256",
          "name": "amount",
          "type": "uint256"
        }
      ],
      "name": "FeesWithdrawn",
      "type": "event"
    },
    {
      "anonymous": false,
      "inputs": [
        {
          "indexed": true,
          "internalType": "address",
          "name": "previousOwner",
          "type": "address"
        },
        {
          "indexed": true,
          "internalType": "address",
          "name": "newOwner",
          "type": "address"
        }
      ],
      "name": "OwnershipTransferred",
      "type": "event"
    },
    {
      "anonymous": false,
      "inputs": [
        {
          "indexed": true,
          "internalType": "uint256",
          "name": "taskId",
          "type": "uint256"
        },
        {
          "indexed": true,
          "internalType": "address",
          "name": "voter",
          "type": "address"
        },
        {
          "indexed": false,
          "internalType": "enum TaskEscrow.VoteChoice",
          "name": "choice",
          "type": "uint8"
        }
      ],
      "name": "VoteCast",
      "type": "event"
    },
    {
      "anonymous": false,
      "inputs": [
        {
          "indexed": false,
          "internalType": "uint32",
          "name": "oldThreshold",
          "type": "uint32"
        },
        {
          "indexed": false,
          "internalType": "uint32",
          "name": "newThreshold",
          "type": "uint32"
        }
      ],
      "name": "VoteThresholdUpdated",
      "type": "event"
    },
    {
      "inputs": [],
      "name": "accumulatedFees",
      "outputs": [
        {
          "internalType": "uint256",
          "name": "",
          "type": "uint256"
        }
      ],
      "stateMutability": "view",
      "type": "function"
    },
    {
      "inputs": [
        {
          "internalType": "uint256",
          "name": "taskId",
          "type": "uint256"
        },
        {
          "internalType": "address",
          "name": "helper",
          "type": "address"
        }
      ],
      "name": "createEscrow",
      "outputs": [],
      "stateMutability": "payable",
      "type": "function"
    },
    {
      "inputs": [
        {
          "internalType": "uint256",
          "name": "",
          "type": "uint256"
        }
      ],
      "name": "escrows",
      "outputs": [
        {
          "internalType": "uint256",
          "name": "taskId",
          "type": "uint256"
        },
        {
          "internalType": "address",
          "name": "requester",
          "type": "address"
        },
        {
          "internalType": "address",
          "name": "helper",
          "type": "address"
        },
        {
          "internalType": "uint256",
          "name": "amount",
          "type": "uint256"
        },
        {
          "internalType": "enum TaskEscrow.EscrowStatus",
          "name": "status",
          "type": "uint8"
        },
        {
          "internalType": "uint64",
          "name": "createdAt",
          "type": "uint64"
        },
        {
          "internalType": "uint64",
          "name": "resolvedAt",
          "type": "uint64"
        },
        {
          "internalType": "uint32",
          "name": "votesForHelper",
          "type": "uint32"
        },
        {
          "internalType": "uint32",
          "name": "votesForRequester",
          "type": "uint32"
        }
      ],
      "stateMutability": "view",
      "type": "function"
    },
    {
      "inputs": [],
      "name": "feeBasisPoints",
      "outputs": [
        {
          "internalType": "uint256",
          "name": "",
          "type": "uint256"
        }
      ],
      "stateMutability": "view",
      "type": "function"
    },
    {
      "inputs": [
        {
          "internalType": "uint256",
          "name": "taskId",
          "type": "uint256"
        }
      ],
      "name": "getEscrow",
      "outputs": [
        {
          "internalType": "address",
          "name": "requester",
          "type": "address"
        },
        {
          "internalType": "address",
          "name": "helper",
          "type": "address"
        },
        {
          "internalType": "uint256",
          "name": "amount",
          "type": "uint256"
        },
        {
          "internalType": "enum TaskEscrow.EscrowStatus",
          "name": "status",
          "type": "uint8"
        },
        {
          "internalType": "uint64",
          "name": "createdAt",
          "type": "uint64"
        },
        {
          "internalType": "uint64",
          "name": "resolvedAt",
          "type": "uint64"
        },
        {
          "internalType": "uint32",
          "name": "votesForHelper",
          "type": "uint32"
        },
        {
          "internalType": "uint32",
          "name": "votesForRequester",
          "type": "uint32"
        }
      ],
      "stateMutability": "view",
      "type": "function"
    },
    {
      "inputs": [
        {
          "internalType": "uint256",
          "name": "taskId",
          "type": "uint256"
        },
        {
          "internalType": "address",
          "name": "voter",
          "type": "address"
        }
      ],
      "name": "getVote",
      "outputs": [
        {
          "internalType": "enum TaskEscrow.VoteChoice",
          "name": "",
          "type": "uint8"
        }
      ],
      "stateMutability": "view",
      "type": "function"
    },
    {
      "inputs": [],
      "name": "owner",
      "outputs": [
        {
          "internalType": "address",
          "name": "",
          "type": "address"
        }
      ],
      "stateMutability": "view",
      "type": "function"
    },
    {
      "inputs": [
        {
          "internalType": "uint256",
          "name": "taskId",
          "type": "uint256"
        }
      ],
      "name": "raiseDispute",
      "outputs": [],
      "stateMutability": "nonpayable",
      "type": "function"
    },
    {
      "inputs": [
        {
          "internalType": "uint256",
          "name": "taskId",
          "type": "uint256"
        }
      ],
      "name": "releaseToHelper",
      "outputs": [],
      "stateMutability": "nonpayable",
      "type": "function"
    },
    {
      "inputs": [],
      "name": "renounceOwnership",
      "outputs": [],
      "stateMutability": "nonpayable",
      "type": "function"
    },
    {
      "inputs": [],
      "name": "sbtContract",
      "outputs": [
        {
          "internalType": "contract IReputationSBT",
          "name": "",
          "type": "address"
        }
      ],
      "stateMutability": "view",
      "type": "function"
    },
    {
      "inputs": [
        {
          "internalType": "uint256",
          "name": "_newFee",
          "type": "uint256"
        }
      ],
      "name": "setFeeBasisPoints",
      "outputs": [],
      "stateMutability": "nonpayable",
      "type": "function"
    },
    {
      "inputs": [
        {
          "internalType": "uint32",
          "name": "_newThreshold",
          "type": "uint32"
        }
      ],
      "name": "setVoteThreshold",
      "outputs": [],
      "stateMutability": "nonpayable",
      "type": "function"
    },
    {
      "inputs": [
        {
          "internalType": "address",
          "name": "newOwner",
          "type": "address"
        }
      ],
      "name": "transferOwnership",
      "outputs": [],
      "stateMutability": "nonpayable",
      "type": "function"
    },
    {
      "inputs": [
        {
          "internalType": "address",
          "name": "_newSBT",
          "type": "address"
        }
      ],
      "name": "updateSBTContract",
      "outputs": [],
      "stateMutability": "nonpayable",
      "type": "function"
    },
    {
      "inputs": [
        {
          "internalType": "uint256",
          "name": "taskId",
          "type": "uint256"
        },
        {
          "internalType": "enum TaskEscrow.VoteChoice",
          "name": "choice",
          "type": "uint8"
        }
      ],
      "name": "voteOnDispute",
      "outputs": [],
      "stateMutability": "nonpayable",
      "type": "function"
    },
    {
      "inputs": [],
      "name": "voteThreshold",
      "outputs": [
        {
          "internalType": "uint32",
          "name": "",
          "type": "uint32"
        }
      ],
      "stateMutability": "view",
      "type": "function"
    },
    {
      "inputs": [
        {
          "internalType": "uint256",
          "name": "",
          "type": "uint256"
        },
        {
          "internalType": "address",
          "name": "",
          "type": "address"
        }
      ],
      "name": "votes",
      "outputs": [
        {
          "internalType": "enum TaskEscrow.VoteChoice",
          "name": "",
          "type": "uint8"
        }
      ],
      "stateMutability": "view",
      "type": "function"
    },
    {
      "inputs": [
        {
          "internalType": "address payable",
          "name": "_to",
          "type": "address"
        }
      ],
      "name": "withdrawFees",
      "outputs": [],
      "stateMutability": "nonpayable",
      "type": "function"
    }
  ],
  "bytecode": "0x608060405234801562000010575f80fd5b5060405162001bd138038062001bd18339810160408190526200003391620001c9565b33806200005a57604051631e4fbdf760e01b81525f60048201526024015b60405180910390fd5b62000065816200017a565b5060017f9b779b17422d0df92223018b32b4d1fa46e071723d6817e2486d003becc55f00556001600160a01b038216620000ed5760405162461bcd60e51b815260206004820152602260248201527f457363726f773a2053425420616464726573732063616e6e6f74206265207a65604482015261726f60f01b606482015260840162000051565b5f8163ffffffff1611620001445760405162461bcd60e51b815260206004820152601d60248201527f457363726f773a207468726573686f6c64206d757374206265203e2030000000604482015260640162000051565b6001805463ffffffff909216600160a01b026001600160c01b03199092166001600160a01b039093169290921717905562000217565b5f80546001600160a01b038381166001600160a01b0319831681178455604051919092169283917f8be0079c531659141344cd1fd0a4f28419497f9722a3daafe3b4186f6b6457e09190a35050565b5f8060408385031215620001db575f80fd5b82516001600160a01b0381168114620001f2575f80fd5b602084015190925063ffffffff811681146200020c575f80fd5b809150509250929050565b6119ac80620002255f395ff3fe608060405260043610610110575f3560e01c80638da5cb5b1161009d578063bc3f931f11610062578063bc3f931f146103f0578063c6db58161461041c578063d23254b41461043b578063dbcd72f014610474578063f2fde38b14610487575f80fd5b80638da5cb5b14610362578063a5c1674e1461037e578063a982685b1461039d578063ada6b0d4146103bc578063b8606eef146103db575f80fd5b8063164e68de116100e3578063164e68de146102355780634fe437d514610254578063587f5ed71461028c578063715018a6146102af5780637d19e596146102c3575f80fd5b8063012f52ee146101145780630165dd27146101be57806306158360146101df578063101bdd1714610216575b5f80fd5b34801561011f575f80fd5b506101a061012e366004611652565b600260208190525f91825260409091208054600182015492820154600383015460049093015491936001600160a01b039081169391169160ff81169067ffffffffffffffff6101008204811691600160481b81049091169063ffffffff600160881b8204811691600160a81b90041689565b6040516101b599989796959493929190611691565b60405180910390f35b3480156101c9575f80fd5b506101dd6101d8366004611652565b6104a6565b005b3480156101ea575f80fd5b506001546101fe906001600160a01b031681565b6040516001600160a01b0390911681526020016101b5565b348015610221575f80fd5b506101dd610230366004611713565b610546565b348015610240575f80fd5b506101dd61024f366004611713565b6105d1565b34801561025f575f80fd5b5060015461027790600160a01b900463ffffffff1681565b60405163ffffffff90911681526020016101b5565b348015610297575f80fd5b506102a160055481565b6040519081526020016101b5565b3480156102ba575f80fd5b506101dd610713565b3480156102ce575f80fd5b5061034e6102dd366004611652565b5f90815260026020819052604090912060018101549181015460038201546004909201546001600160a01b0393841694939091169260ff82169167ffffffffffffffff6101008204811692600160481b83049091169163ffffffff600160881b8204811692600160a81b9092041690565b6040516101b598979695949392919061172e565b34801561036d575f80fd5b505f546001600160a01b03166101fe565b348015610389575f80fd5b506101dd610398366004611652565b610726565b3480156103a8575f80fd5b506101dd6103b7366004611794565b61085c565b3480156103c7575f80fd5b506101dd6103d63660046117b7565b61092a565b3480156103e6575f80fd5b506102a160045481565b3480156103fb575f80fd5b5061040f61040a3660046117e8565b610d05565b6040516101b5919061181b565b348015610427575f80fd5b506101dd610436366004611652565b610d31565b348015610446575f80fd5b5061040f6104553660046117e8565b600360209081525f928352604080842090915290825290205460ff1681565b6101dd6104823660046117e8565b610f31565b348015610492575f80fd5b506101dd6104a1366004611713565b611285565b6104ae6112bf565b6103e88111156105055760405162461bcd60e51b815260206004820152601d60248201527f457363726f773a206665652063616e6e6f74206578636565642031302500000060448201526064015b60405180910390fd5b60045460408051918252602082018390527fa000bd133a155b02a7bc4f0592fdaf6cfb67ae19c4176c6cbc7bdafda544817d910160405180910390a1600455565b61054e6112bf565b6001600160a01b0381166105af5760405162461bcd60e51b815260206004820152602260248201527f457363726f773a2053425420616464726573732063616e6e6f74206265207a65604482015261726f60f01b60648201526084016104fc565b600180546001600160a01b0319166001600160a01b0392909216919091179055565b6105d96112bf565b600554806106295760405162461bcd60e51b815260206004820152601b60248201527f457363726f773a206e6f206665657320746f207769746864726177000000000060448201526064016104fc565b5f60058190556040516001600160a01b0384169083908381818185875af1925050503d805f8114610675576040519150601f19603f3d011682016040523d82523d5f602084013e61067a565b606091505b50509050806106cb5760405162461bcd60e51b815260206004820152601b60248201527f457363726f773a20666565207472616e73666572206661696c6564000000000060448201526064016104fc565b826001600160a01b03167fc0819c13be868895eb93e40eaceb96de976442fa1d404e5c55f14bb65a8c489a8360405161070691815260200190565b60405180910390a2505050565b61071b6112bf565b6107245f6112eb565b565b5f818152600260205260409020600160048083015460ff169081111561074e5761074e611669565b1461079b5760405162461bcd60e51b815260206004820152601b60248201527f457363726f773a206e6f7420696e204c6f636b6564207374617465000000000060448201526064016104fc565b60018101546001600160a01b03163314806107c2575060028101546001600160a01b031633145b61081d5760405162461bcd60e51b815260206004820152602660248201527f457363726f773a206f6e6c7920706172746965732063616e207261697365206460448201526569737075746560d01b60648201526084016104fc565b60048101805460ff19166003179055604051339083907f84a477df8a28a4276ca6dee4458a06c3015f30c477d9c949ede4e13ff8a552b4905f90a35050565b6108646112bf565b5f8163ffffffff16116108b95760405162461bcd60e51b815260206004820152601d60248201527f457363726f773a207468726573686f6c64206d757374206265203e203000000060448201526064016104fc565b6001546040805163ffffffff600160a01b9093048316815291831660208301527f4a3af71b720cc3e283322214ea6df527ed7ef942a328eb20daf6e035892c2e13910160405180910390a16001805463ffffffff909216600160a01b0263ffffffff60a01b19909216919091179055565b61093261133a565b600181600281111561094657610946611669565b14806109635750600281600281111561096157610961611669565b145b6109af5760405162461bcd60e51b815260206004820152601b60248201527f457363726f773a20696e76616c696420766f74652063686f696365000000000060448201526064016104fc565b5f828152600260205260409020600360048083015460ff16908111156109d7576109d7611669565b14610a245760405162461bcd60e51b815260206004820152601d60248201527f457363726f773a206e6f7420696e20446973707574656420737461746500000060448201526064016104fc565b600154604051634f4e191760e11b81526001600160a01b0390911690639e9c322e90610a57903390600390600401611829565b602060405180830381865afa158015610a72573d5f803e3d5ffd5b505050506040513d601f19601f82011682018060405250810190610a969190611856565b610ae25760405162461bcd60e51b815260206004820181905260248201527f457363726f773a20766f746572206d75737420686f6c6420476f6c642053425460448201526064016104fc565b60018101546001600160a01b03163314801590610b0c575060028101546001600160a01b03163314155b610b585760405162461bcd60e51b815260206004820152601b60248201527f457363726f773a20706172746965732063616e6e6f7420766f7465000000000060448201526064016104fc565b5f83815260036020908152604080832033845290915281205460ff166002811115610b8557610b85611669565b14610bca5760405162461bcd60e51b8152602060048201526015602482015274115cd8dc9bddce88185b1c9958591e481d9bdd1959605a1b60448201526064016104fc565b5f8381526003602090815260408083203384529091529020805483919060ff19166001836002811115610bff57610bff611669565b02179055506001826002811115610c1857610c18611669565b03610c6057600481018054600160881b900463ffffffff16906011610c3c83611889565b91906101000a81548163ffffffff021916908363ffffffff16021790555050610c9f565b600481018054600160a81b900463ffffffff16906015610c7f83611889565b91906101000a81548163ffffffff021916908363ffffffff160217905550505b336001600160a01b0316837feba4866100b822f0f391e610e7edfab790b9e8766c0012733c26b2f1858e8dd784604051610cd9919061181b565b60405180910390a3610cea83611355565b50610d0160015f8051602061195783398151915255565b5050565b5f8281526003602090815260408083206001600160a01b038516845290915290205460ff165b92915050565b610d3961133a565b5f818152600260205260409020600160048083015460ff1690811115610d6157610d61611669565b14610dae5760405162461bcd60e51b815260206004820152601b60248201527f457363726f773a206e6f7420696e204c6f636b6564207374617465000000000060448201526064016104fc565b60018101546001600160a01b03163314610e155760405162461bcd60e51b815260206004820152602260248201527f457363726f773a206f6e6c79207265717565737465722063616e2072656c6561604482015261736560f01b60648201526084016104fc565b60048101805467ffffffffffffffff4216600160481b0270ffffffffffffffff0000000000000000ff1990911617600217905560038101545f90610e58906115cf565b60028301546040519192505f916001600160a01b039091169083908381818185875af1925050503d805f8114610ea9576040519150601f19603f3d011682016040523d82523d5f602084013e610eae565b606091505b5050905080610ecf5760405162461bcd60e51b81526004016104fc906118ab565b60028301546040518381526001600160a01b039091169085907f6244ed823ca6be0f11bc890c3fafcf3c29cb23420c14243642e930b5e07e6d0a9060200160405180910390a3505050610f2e60015f8051602061195783398151915255565b50565b610f3961133a565b5f3411610f805760405162461bcd60e51b815260206004820152601560248201527408ae6c6e4deee7440daeae6e840e6cadcc8408aa89605b1b60448201526064016104fc565b6001600160a01b038116610fd65760405162461bcd60e51b815260206004820152601d60248201527f457363726f773a2068656c7065722063616e6e6f74206265207a65726f00000060448201526064016104fc565b336001600160a01b038216036110385760405162461bcd60e51b815260206004820152602160248201527f457363726f773a2063616e6e6f7420657363726f7720746f20796f757273656c6044820152603360f91b60648201526084016104fc565b5f82815260026020526040812060049081015460ff169081111561105e5761105e611669565b146110b75760405162461bcd60e51b8152602060048201526024808201527f457363726f773a20616c72656164792065786973747320666f722074686973206044820152637461736b60e01b60648201526084016104fc565b60408051610120810182528381523360208083019182526001600160a01b03858116848601908152346060860190815260016080870181815267ffffffffffffffff421660a08901525f60c0890181905260e0890181905261010089018190528b81526002968790529890982087518155955186820180549186166001600160a01b03199283161790559251948601805495909416949092169390931790915590516003830155925160048083018054949593949293909260ff191691849081111561118557611185611669565b021790555060a0820151600491909101805460c084015160e08501516101009586015170ffffffffffffffffffffffffffffffff001990931667ffffffffffffffff95861690960270ffffffffffffffff000000000000000000191695909517600160481b94909116939093029290921767ffffffffffffffff60881b1916600160881b63ffffffff9485160263ffffffff60a81b191617600160a81b93909216929092021790556040513481526001600160a01b03821690339084907f9405ad0a6208539879349284d71265479b1623846f70303da1f9890d6e8c10a79060200160405180910390a4610d0160015f8051602061195783398151915255565b61128d6112bf565b6001600160a01b0381166112b657604051631e4fbdf760e01b81525f60048201526024016104fc565b610f2e816112eb565b5f546001600160a01b031633146107245760405163118cdaa760e01b81523360048201526024016104fc565b5f80546001600160a01b038381166001600160a01b0319831681178455604051919092169283917f8be0079c531659141344cd1fd0a4f28419497f9722a3daafe3b4186f6b6457e09190a35050565b611342611623565b60025f8051602061195783398151915255565b5f8181526002602052604090206001546004820154600160a01b90910463ffffffff908116600160881b9092041610611482576004818101805470ffffffffffffffff0000000000000000ff1916600160481b4267ffffffffffffffff160217909117905560038101545f906113ca906115cf565b60028301546040519192505f916001600160a01b039091169083908381818185875af1925050503d805f811461141b576040519150601f19603f3d011682016040523d82523d5f602084013e611420565b606091505b50509050806114415760405162461bcd60e51b81526004016104fc906118ab565b837ff1ec8c5f40b1ecbe135bf063eabb3d0787f27bef26b6dcf944914a01d2de0b9e6001846040516114749291906118ec565b60405180910390a250505050565b6001546004820154600160a01b90910463ffffffff908116600160a81b9092041610610d01576004818101805470ffffffffffffffff0000000000000000ff1916600160481b4267ffffffffffffffff160217909117905560038101545f906114ea906115cf565b60018301546040519192505f916001600160a01b039091169083908381818185875af1925050503d805f811461153b576040519150601f19603f3d011682016040523d82523d5f602084013e611540565b606091505b505090508061159c5760405162461bcd60e51b815260206004820152602260248201527f457363726f773a20726566756e6420746f20726571756573746572206661696c604482015261195960f21b60648201526084016104fc565b837ff1ec8c5f40b1ecbe135bf063eabb3d0787f27bef26b6dcf944914a01d2de0b9e6002846040516114749291906118ec565b5f6004545f036115dd575090565b5f612710600454846115ef91906118fa565b6115f99190611911565b90508060055f82825461160c9190611930565b9091555061161c90508184611943565b9392505050565b5f805160206119578339815191525460020361072457604051633ee5aeb560e01b815260040160405180910390fd5b5f60208284031215611662575f80fd5b5035919050565b634e487b7160e01b5f52602160045260245ffd5b6005811061168d5761168d611669565b9052565b8981526001600160a01b038981166020830152881660408201526060810187905261012081016116c4608083018861167d565b67ffffffffffffffff95861660a08301529390941660c085015263ffffffff91821660e0850152166101009092019190915295945050505050565b6001600160a01b0381168114610f2e575f80fd5b5f60208284031215611723575f80fd5b813561161c816116ff565b6001600160a01b0389811682528816602082015260408101879052610100810161175b606083018861167d565b67ffffffffffffffff95861660808301529390941660a085015263ffffffff91821660c08501521660e090920191909152949350505050565b5f602082840312156117a4575f80fd5b813563ffffffff8116811461161c575f80fd5b5f80604083850312156117c8575f80fd5b823591506020830135600381106117dd575f80fd5b809150509250929050565b5f80604083850312156117f9575f80fd5b8235915060208301356117dd816116ff565b6003811061168d5761168d611669565b60208101610d2b828461180b565b6001600160a01b0383168152604081016004831061184957611849611669565b8260208301529392505050565b5f60208284031215611866575f80fd5b8151801515811461161c575f80fd5b634e487b7160e01b5f52601160045260245ffd5b5f63ffffffff8083168181036118a1576118a1611875565b6001019392505050565b60208082526021908201527f457363726f773a207472616e7366657220746f2068656c706572206661696c656040820152601960fa1b606082015260800190565b60408101611849828561180b565b8082028115828204841417610d2b57610d2b611875565b5f8261192b57634e487b7160e01b5f52601260045260245ffd5b500490565b80820180821115610d2b57610d2b611875565b81810381811115610d2b57610d2b61187556fe9b779b17422d0df92223018b32b4d1fa46e071723d6817e2486d003becc55f00a2646970667358221220a8b1a8bc313c29e4a660eb173291ff00e309055f6484ee1fdad86d16af95402c64736f6c63430008180033",
  "linkReferences": {},
  "deployedLinkReferences": {}
}