{
  "_format": "hh-sol-artifact-1",
  "contractName": "ReputationSBT",
  "sourceName": "src/ReputationSBT.sol",
  "abi": [
    {
      "inputs": [],
      "stateMutability": "nonpayable",
      "type": "constructor"
    },
    {
      "inputs": [
        {
          "internalType": "address",
          "name": "sender",
          "type": "address"
        },
        {
          "internalType": "uint256",
          "name": "tokenId",
          "type": "uint256"
        },
        {
          "internalType": "address",
          "name": "owner",
          "type": "address"
        }
      ],
      "name": "ERC721IncorrectOwner",
      "type": "error"
    },
    {
      "inputs": [
        {
          "internalType": "address",
          "name": "operator",
          "type": "address"
        },
        {
          "internalType": "uint256",
          "name": "tokenId",
          "type": "uint256"
        }
      ],
      "name": "ERC721InsufficientApproval",
      "type": "error"
    },
    {
      "inputs": [
        {
          "internalType": "address",
          "name": "approver",
          "type": "address"
        }
      ],
      "name": "ERC721InvalidApprover",
      "type": "error"
    },
    {
      "inputs": [
        {
          "internalType": "address",
          "name": "operator",
          "type": "address"
        }
      ],
      "name": "ERC721InvalidOperator",
      "type": "error"
    },
    {
      "inputs": [
        {
          "internalType": "address",
          "name": "owner",
          "type": "address"
        }
      ],
      "name": "ERC721InvalidOwner",
      "type": "error"
    },
    {
      "inputs": [
        {
          "internalType": "address",
          "name": "receiver",
          "type": "address"
        }
      ],
      "name": "ERC721InvalidReceiver",
      "type": "error"
    },
    {
      "inputs": [
        {
          "internalType": "address",
          "name": "sender",
          "type": "address"
        }
      ],
      "name": "ERC721InvalidSender",
      "type": "error"
    },
    {
      "inputs": [
        {
          "internalType": "uint256",
          "name": "tokenId",
          "type": "uint256"
        }
      ],
      "name": "ERC721NonexistentToken",
      "type": "error"
    },
    {
      "inputs": [
        {
          "internalType": "address",
          "name": "owner",
          "type": "address"
        }
      ],
      "name": "OwnableInvalidOwner",
      "type": "error"
    },
    {
      "inputs": [
        {
          "internalType": "address",
          "name": "account",
          "type": "address"
        }
      ],
      "name": "OwnableUnauthorizedAccount",
      "type": "error"
    },
    {
      "anonymous": false,
      "inputs": [
        {
          "indexed": true,
          "internalType": "address",
          "name": "owner",
          "type": "address"
        },
        {
          "indexed": true,
          "internalType": "address",
          "name": "approved",
          "type": "address"
        },
        {
          "indexed": true,
          "internalType": "uint256",
          "name": "tokenId",
          "type": "uint256"
        }
      ],
      "name": "Approval",
      "type": "event"
    },
    {
      "anonymous": false,
      "inputs": [
        {
          "indexed": true,
          "internalType": "address",
          "name": "owner",
          "type": "address"
        },
        {
          "indexed": true,
          "internalType": "address",
          "name": "operator",
          "type": "address"
        },
        {
          "indexed": false,
          "internalType": "bool",
          "name": "approved",
          "type": "bool"
        }
      ],
      "name": "ApprovalForAll",
      "type": "event"
    },
    {
      "anonymous": false,
      "inputs": [
        {
          "indexed": true,
          "internalType": "bytes32",
          "name": "newRoot",
          "type": "bytes32"
        },
        {
          "indexed": false,
          "internalType": "uint256",
          "name": "timestamp",
          "type": "uint256"
        }
      ],
      "name": "MerkleRootUpdated",
      "type": "event"
    },
    {
      "anonymous": false,
      "inputs": [
        {
          "indexed": true,
          "internalType": "address",
          "name": "previousOwner",
          "type": "address"
        },
        {
          "indexed": true,
          "internalType": "address",
          "name": "newOwner",
          "type": "address"
        }
      ],
      "name": "OwnershipTransferred",
      "type": "event"
    },
    {
      "anonymous": false,
      "inputs": [
        {
          "indexed": true,
          "internalType": "address",
          "name": "to",
          "type": "address"
        },
        {
          "indexed": true,
          "internalType": "uint256",
          "name": "tokenId",
          "type": "uint256"
        },
        {
          "indexed": false,
          "internalType": "enum ReputationSBT.Tier",
          "name": "tier",
          "type": "uint8"
        },
        {
          "indexed": false,
          "internalType": "uint64",
          "name": "score",
          "type": "uint64"
        }
      ],
      "name": "SBTMinted",
      "type": "event"
    },
    {
      "anonymous": false,
      "inputs": [
        {
          "indexed": true,
          "internalType": "address",
          "name": "holder",
          "type": "address"
        },
        {
          "indexed": true,
          "internalType": "uint256",
          "name": "tokenId",
          "type": "uint256"
        },
        {
          "indexed": false,
          "internalType": "enum ReputationSBT.Tier",
          "name": "oldTier",
          "type": "uint8"
        },
        {
          "indexed": false,
          "internalType": "enum ReputationSBT.Tier",
          "name": "newTier",
          "type": "uint8"
        },
        {
          "indexed": false,
          "internalType": "uint64",
          "name": "newScore",
          "type": "uint64"
        }
      ],
      "name": "SBTUpgraded",
      "type": "event"
    },
    {
      "anonymous": false,
      "inputs": [
        {
          "indexed": false,
          "internalType": "uint64",
          "name": "bronze",
          "type": "uint64"
        },
        {
          "indexed": false,
          "internalType": "uint64",
          "name": "silver",
          "type": "uint64"
        },
        {
          "indexed": false,
          "internalType": "uint64",
          "name": "gold",
          "type": "uint64"
        }
      ],
      "name": "ThresholdsUpdated",
      "type": "event"
    },
    {
      "anonymous": false,
      "inputs": [
        {
          "indexed": true,
          "internalType": "address",
          "name": "from",
          "type": "address"
        },
        {
          "indexed": true,
          "internalType": "address",
          "name": "to",
          "type": "address"
        },
        {
          "indexed": true,
          "internalType": "uint256",
          "name": "tokenId",
          "type": "uint256"
        }
      ],
      "name": "Transfer",
      "type": "event"
    },
    {
      "inputs": [
        {
          "internalType": "address",
          "name": "to",
          "type": "address"
        },
        {
          "internalType": "uint256",
          "name": "tokenId",
          "type": "uint256"
        }
      ],
      "name": "approve",
      "outputs": [],
      "stateMutability": "nonpayable",
      "type": "function"
    },
    {
      "inputs": [
        {
          "internalType": "address",
          "name": "owner",
          "type": "address"
        }
      ],
      "name": "balanceOf",
      "outputs": [
        {
          "internalType": "uint256",
          "name": "",
          "type": "uint256"
        }
      ],
      "stateMutability": "view",
      "type": "function"
    },
    {
      "inputs": [],
      "name": "bronzeThreshold",
      "outputs": [
        {
          "internalType": "uint64",
          "name": "",
          "type": "uint64"
        }
      ],
      "stateMutability": "view",
      "type": "function"
    },
    {
      "inputs": [
        {
          "internalType": "uint256",
          "name": "tokenId",
          "type": "uint256"
        }
      ],
      "name": "getApproved",
      "outputs": [
        {
          "internalType": "address",
          "name": "",
          "type": "address"
        }
      ],
      "stateMutability": "view",
      "type": "function"
    },
    {
      "inputs": [
        {
          "internalType": "address",
          "name": "account",
          "type": "address"
        }
      ],
      "name": "getSBT",
      "outputs": [
        {
          "internalType": "uint256",
          "name": "tokenId",
          "type": "uint256"
        },
        {
          "internalType": "enum ReputationSBT.Tier",
          "name": "tier",
          "type": "uint8"
        },
        {
          "internalType": "uint64",
          "name": "score",
          "type": "uint64"
        },
        {
          "internalType": "uint64",
          "name": "mintedAt",
          "type": "uint64"
        },
        {
          "internalType": "uint64",
          "name": "updatedAt",
          "type": "uint64"
        }
      ],
      "stateMutability": "view",
      "type": "function"
    },
    {
      "inputs": [],
      "name": "goldThreshold",
      "outputs": [
        {
          "internalType": "uint64",
          "name": "",
          "type": "uint64"
        }
      ],
      "stateMutability": "view",
      "type": "function"
    },
    {
      "inputs": [
        {
          "internalType": "address",
          "name": "account",
          "type": "address"
        },
        {
          "internalType": "enum ReputationSBT.Tier",
          "name": "minTier",
          "type": "uint8"
        }
      ],
      "name": "hasMinTier",
      "outputs": [
        {
          "internalType": "bool",
          "name": "",
          "type": "bool"
        }
      ],
      "stateMutability": "view",
      "type": "function"
    },
    {
      "inputs": [
        {
          "internalType": "address",
          "name": "owner",
          "type": "address"
        },
        {
          "internalType": "address",
          "name": "operator",
          "type": "address"
        }
      ],
      "name": "isApprovedForAll",
      "outputs": [
        {
          "internalType": "bool",
          "name": "",
          "type": "bool"
        }
      ],
      "stateMutability": "view",
      "type": "function"
    },
    {
      "inputs": [],
      "name": "merkleRoot",
      "outputs": [
        {
          "internalType": "bytes32",
          "name": "",
          "type": "bytes32"
        }
      ],
      "stateMutability": "view",
      "type": "function"
    },
    {
      "inputs": [
        {
          "internalType": "uint64",
          "name": "score",
          "type": "uint64"
        },
        {
          "internalType": "bytes32[]",
          "name": "proof",
          "type": "bytes32[]"
        }
      ],
      "name": "mintOrUpgradeSBT",
      "outputs": [],
      "stateMutability": "nonpayable",
      "type": "function"
    },
    {
      "inputs": [],
      "name": "name",
      "outputs": [
        {
          "internalType": "string",
          "name": "",
          "type": "string"
        }
      ],
      "stateMutability": "view",
      "type": "function"
    },
    {
      "inputs": [],
      "name": "owner",
      "outputs": [
        {
          "internalType": "address",
          "name": "",
          "type": "address"
        }
      ],
      "stateMutability": "view",
      "type": "function"
    },
    {
      "inputs": [
        {
          "internalType": "uint256",
          "name": "tokenId",
          "type": "uint256"
        }
      ],
      "name": "ownerOf",
      "outputs": [
        {
          "internalType": "address",
          "name": "",
          "type": "address"
        }
      ],
      "stateMutability": "view",
      "type": "function"
    },
    {
      "inputs": [],
      "name": "renounceOwnership",
      "outputs": [],
      "stateMutability": "nonpayable",
      "type": "function"
    },
    {
      "inputs": [
        {
          "internalType": "address",
          "name": "from",
          "type": "address"
        },
        {
          "internalType": "address",
          "name": "to",
          "type": "address"
        },
        {
          "internalType": "uint256",
          "name": "tokenId",
          "type": "uint256"
        }
      ],
      "name": "safeTransferFrom",
      "outputs": [],
      "stateMutability": "nonpayable",
      "type": "function"
    },
    {
      "inputs": [
        {
          "internalType": "address",
          "name": "from",
          "type": "address"
        },
        {
          "internalType": "address",
          "name": "to",
          "type": "address"
        },
        {
          "internalType": "uint256",
          "name": "tokenId",
          "type": "uint256"
        },
        {
          "internalType": "bytes",
          "name": "data",
          "type": "bytes"
        }
      ],
      "name": "safeTransferFrom",
      "outputs": [],
      "stateMutability": "nonpayable",
      "type": "function"
    },
    {
      "inputs": [
        {
          "internalType": "uint256",
          "name": "",
          "type": "uint256"
        }
      ],
      "name": "sbtData",
      "outputs": [
        {
          "internalType": "enum ReputationSBT.Tier",
          "name": "tier",
          "type": "uint8"
        },
        {
          "internalType": "uint64",
          "name": "score",
          "type": "uint64"
        },
        {
          "internalType": "uint64",
          "name": "mintedAt",
          "type": "uint64"
        },
        {
          "internalType": "uint64",
          "name": "updatedAt",
          "type": "uint64"
        }
      ],
      "stateMutability": "view",
      "type": "function"
    },
    {
      "inputs": [
        {
          "internalType": "address",
          "name": "",
          "type": "address"
        }
      ],
      "name": "sbtOf",
      "outputs": [
        {
          "internalType": "uint256",
          "name": "",
          "type": "uint256"
        }
      ],
      "stateMutability": "view",
      "type": "function"
    },
    {
      "inputs": [
        {
          "internalType": "address",
          "name": "operator",
          "type": "address"
        },
        {
          "internalType": "bool",
          "name": "approved",
          "type": "bool"
        }
      ],
      "name": "setApprovalForAll",
      "outputs": [],
      "stateMutability": "nonpayable",
      "type": "function"
    },
    {
      "inputs": [
        {
          "internalType": "uint64",
          "name": "_bronze",
          "type": "uint64"
        },
        {
          "internalType": "uint64",
          "name": "_silver",
          "type": "uint64"
        },
        {
          "internalType": "uint64",
          "name": "_gold",
          "type": "uint64"
        }
      ],
      "name": "setThresholds",
      "outputs": [],
      "stateMutability": "nonpayable",
      "type": "function"
    },
    {
      "inputs": [],
      "name": "silverThreshold",
      "outputs": [
        {
          "internalType": "uint64",
          "name": "",
          "type": "uint64"
        }
      ],
      "stateMutability": "view",
      "type": "function"
    },
    {
      "inputs": [
        {
          "internalType": "bytes4",
          "name": "interfaceId",
          "type": "bytes4"
        }
      ],
      "name": "supportsInterface",
      "outputs": [
        {
          "internalType": "bool",
          "name": "",
          "type": "bool"
        }
      ],
      "stateMutability": "view",
      "type": "function"
    },
    {
      "inputs": [],
      "name": "symbol",
      "outputs": [
        {
          "internalType": "string",
          "name": "",
          "type": "string"
        }
      ],
      "stateMutability": "view",
      "type": "function"
    },
    {
      "inputs": [
        {
          "internalType": "address",
          "name": "account",
          "type": "address"
        }
      ],
      "name": "tierOf",
      "outputs": [
        {
          "internalType": "enum ReputationSBT.Tier",
          "name": "",
          "type": "uint8"
        }
      ],
      "stateMutability": "view",
      "type": "function"
    },
    {
      "inputs": [
        {
          "internalType": "uint256",
          "name": "tokenId",
          "type": "uint256"
        }
      ],
      "name": "tokenURI",
      "outputs": [
        {
          "internalType": "string",
          "name": "",
          "type": "string"
        }
      ],
      "stateMutability": "view",
      "type": "function"
    },
    {
      "inputs": [
        {
          "internalType": "address",
          "name": "from",
          "type": "address"
        },
        {
          "internalType": "address",
          "name": "to",
          "type": "address"
        },
        {
          "internalType": "uint256",
          "name": "tokenId",
          "type": "uint256"
        }
      ],
      "name": "transferFrom",
      "outputs": [],
      "stateMutability": "nonpayable",
      "type": "function"
    },
    {
      "inputs": [
        {
          "internalType": "address",
          "name": "newOwner",
          "type": "address"
        }
      ],
      "name": "transferOwnership",
      "outputs": [],
      "stateMutability": "nonpayable",
      "type": "function"
    },
    {
      "inputs": [
        {
          "internalType": "bytes32",
          "name": "_newRoot",
          "type": "bytes32"
        }
      ],
      "name": "updateMerkleRoot",
      "outputs": [],
      "stateMutability": "nonpayable",
      "type": "function"
    }
  ],
  "bytecode": "0x6080604052600b80546001600160c01b03191670500000000000000032000000000000001417905534801562000033575f80fd5b50336040518060400160405280601a81526020017f4461696c7948656c7065722052657075746174696f6e2053425400000000000081525060405180604001604052806005815260200164111214d09560da1b815250815f9081620000999190620001df565b506001620000a88282620001df565b5050506001600160a01b038116620000d957604051631e4fbdf760e01b81525f600482015260240160405180910390fd5b620000e481620000f0565b506001600855620002ab565b600680546001600160a01b038381166001600160a01b0319831681179093556040519116919082907f8be0079c531659141344cd1fd0a4f28419497f9722a3daafe3b4186f6b6457e0905f90a35050565b634e487b7160e01b5f52604160045260245ffd5b600181811c908216806200016a57607f821691505b6020821081036200018957634e487b7160e01b5f52602260045260245ffd5b50919050565b601f821115620001da57805f5260205f20601f840160051c81016020851015620001b65750805b601f840160051c820191505b81811015620001d7575f8155600101620001c2565b50505b505050565b81516001600160401b03811115620001fb57620001fb62000141565b62000213816200020c845462000155565b846200018f565b602080601f83116001811462000249575f8415620002315750858301515b5f19600386901b1c1916600185901b178555620002a3565b5f85815260208120601f198616915b82811015620002795788860151825594840194600190910190840162000258565b50858210156200029757878501515f19600388901b60f8161c191681555b505060018460011b0185555b505050505050565b611d4b80620002b95f395ff3fe608060405234801561000f575f80fd5b50600436106101bb575f3560e01c8063715018a6116100f3578063c6d410f911610093578063da3a010c1161006e578063da3a010c14610427578063e985e9c51461044b578063f2fde38b1461045e578063f6aa898414610471575f80fd5b8063c6d410f9146103da578063c87b56dd146103f4578063c8f74bb814610407575f80fd5b806395d89b41116100ce57806395d89b41146103995780639e9c322e146103a1578063a22cb465146103b4578063b88d4fde146103c7575f80fd5b8063715018a614610329578063776fafac146103315780638da5cb5b14610388575f80fd5b806342842e0e1161015e5780635da736a7116101395780635da736a7146102be5780636352211e146102e957806370330488146102fc57806370a0823114610316575f80fd5b806342842e0e146102855780634783f0ef146102985780635bae405e146102ab575f80fd5b8063095ea7b311610199578063095ea7b31461022757806323b872dd1461023c5780632eb4a7ab1461024f57806331d1fc3b14610266575f80fd5b806301ffc9a7146101bf57806306fdde03146101e7578063081812fc146101fc575b5f80fd5b6101d26101cd36600461179c565b610484565b60405190151581526020015b60405180910390f35b6101ef6104d5565b6040516101de9190611804565b61020f61020a366004611816565b610564565b6040516001600160a01b0390911681526020016101de565b61023a610235366004611848565b61058b565b005b61023a61024a366004611870565b61059a565b61025860075481565b6040519081526020016101de565b6102586102743660046118a9565b60096020525f908152604090205481565b61023a610293366004611870565b610628565b61023a6102a6366004611816565b610647565b61023a6102b93660046118d8565b6106d9565b600b546102d1906001600160401b031681565b6040516001600160401b0390911681526020016101de565b61020f6102f7366004611816565b610af8565b600b546102d190600160401b90046001600160401b031681565b6102586103243660046118a9565b610b02565b61023a610b47565b61037861033f366004611816565b600a6020525f908152604090205460ff8116906001600160401b036101008204811691600160481b8104821691600160881b9091041684565b6040516101de949392919061198a565b6006546001600160a01b031661020f565b6101ef610b5a565b6101d26103af3660046119c0565b610b69565b61023a6103c23660046119f8565b610bcf565b61023a6103d5366004611a3a565b610bda565b600b546102d190600160801b90046001600160401b031681565b6101ef610402366004611816565b610bf2565b61041a6104153660046118a9565b610c63565b6040516101de9190611b0e565b61043a6104353660046118a9565b610ca1565b6040516101de959493929190611b1c565b6101d2610459366004611b59565b610d07565b61023a61046c3660046118a9565b610d34565b61023a61047f366004611b8a565b610d71565b5f6001600160e01b031982166380ac58cd60e01b14806104b457506001600160e01b03198216635b5e139f60e01b145b806104cf57506301ffc9a760e01b6001600160e01b03198316145b92915050565b60605f80546104e390611bca565b80601f016020809104026020016040519081016040528092919081815260200182805461050f90611bca565b801561055a5780601f106105315761010080835404028352916020019161055a565b820191905f5260205f20905b81548152906001019060200180831161053d57829003601f168201915b5050505050905090565b5f61056e82610e97565b505f828152600460205260409020546001600160a01b03166104cf565b610596828233610ecf565b5050565b6001600160a01b0382166105c857604051633250574960e11b81525f60048201526024015b60405180910390fd5b5f6105d4838333610edc565b9050836001600160a01b0316816001600160a01b031614610622576040516364283d7b60e01b81526001600160a01b03808616600483015260248201849052821660448201526064016105bf565b50505050565b61064283838360405180602001604052805f815250610bda565b505050565b61064f610f76565b8061069c5760405162461bcd60e51b815260206004820152601860248201527f5342543a20726f6f742063616e6e6f74206265207a65726f000000000000000060448201526064016105bf565b600781905560405142815281907fecb6e184c8c1ff50ab199b30650a76b7eb56fe2f261becc6284e0a3a1707be489060200160405180910390a250565b6040516bffffffffffffffffffffffff193360601b1660208201526001600160c01b031960c085901b1660348201525f90603c016040516020818303038152906040528051906020012090506107658383808060200260200160405190810160405280939291908181526020018383602002808284375f92019190915250506007549150849050610fa3565b6107b15760405162461bcd60e51b815260206004820152601960248201527f5342543a20696e76616c6964204d65726b6c652070726f6f660000000000000060448201526064016105bf565b5f6107bb85610fb8565b90505f8160038111156107d0576107d0611956565b036108285760405162461bcd60e51b815260206004820152602260248201527f5342543a2073636f72652062656c6f77206d696e696d756d207468726573686f6044820152611b1960f21b60648201526084016105bf565b335f90815260096020526040812054908190036109a057600880545f918261084f83611c02565b91905055905061085f3382611029565b335f90815260096020526040908190208290558051608081019091528084600381111561088e5761088e611956565b81526001600160401b03808a166020808401919091524290911660408084018290526060909301525f848152600a9091522081518154829060ff191660018360038111156108de576108de611956565b02179055506020820151815460408085015160609095015170ffffffffffffffffffffffffffffffff00199092166101006001600160401b039485160270ffffffffffffffff000000000000000000191617600160481b958416959095029490941767ffffffffffffffff60881b1916600160881b929091169190910217905551819033907f475bada99ec5ffc3864d458e3f5a97d02d0c5b42f3305804eb1c174a6aa80740906109929087908c90611c26565b60405180910390a350610af0565b5f818152600a60205260409020805460ff1660038111156109c3576109c3611956565b8360038111156109d5576109d5611956565b11610a345760405162461bcd60e51b815260206004820152602960248201527f5342543a206e65772074696572206d75737420626520686967686572207468616044820152681b8818dd5c9c995b9d60ba1b60648201526084016105bf565b805460ff8116908490839060ff19166001836003811115610a5757610a57611956565b02179055508154426001600160401b03908116600160881b0267ffffffffffffffff60881b19918b16610100029190911678ffffffffffffffff0000000000000000ffffffffffffffff001990921691909117178255604051839033907f57915d79412ae764ec009123aabe9168c947311a0d52d518a587edf03f7bc54590610ae590859089908e90611c4a565b60405180910390a350505b505050505050565b5f6104cf82610e97565b5f6001600160a01b038216610b2c576040516322718ad960e21b81525f60048201526024016105bf565b506001600160a01b03165f9081526003602052604090205490565b610b4f610f76565b610b585f611042565b565b6060600180546104e390611bca565b6001600160a01b0382165f90815260096020526040812054808203610b91575f9150506104cf565b826003811115610ba357610ba3611956565b5f828152600a602052604090205460ff166003811115610bc557610bc5611956565b1015949350505050565b610596338383611093565b610be584848461059a565b610622338585858561115a565b6060610bfd82610e97565b505f610c1360408051602081019091525f815290565b90505f815111610c315760405180602001604052805f815250610c5c565b80610c3b84611280565b604051602001610c4c929190611c7c565b6040516020818303038152906040525b9392505050565b6001600160a01b0381165f90815260096020526040812054808203610c8a57505f92915050565b5f908152600a602052604090205460ff1692915050565b6001600160a01b0381165f90815260096020526040812054908080808415610cfe575050505f828152600a602052604090205460ff811691506001600160401b036101008204811691600160481b8104821691600160881b909104165b91939590929450565b6001600160a01b039182165f90815260056020908152604080832093909416825291909152205460ff1690565b610d3c610f76565b6001600160a01b038116610d6557604051631e4fbdf760e01b81525f60048201526024016105bf565b610d6e81611042565b50565b610d79610f76565b816001600160401b0316836001600160401b0316108015610dab5750806001600160401b0316826001600160401b0316105b610e015760405162461bcd60e51b815260206004820152602160248201527f5342543a207468726573686f6c6473206d75737420626520617363656e64696e6044820152606760f81b60648201526084016105bf565b600b80546001600160401b038581166fffffffffffffffffffffffffffffffff199092168217600160401b8683169081029190911767ffffffffffffffff60801b1916600160801b928616928302179093556040805192835260208301939093528183015290517fe59fab075c70fcb76a8b3973d1129759ce1bf386bd0a0ce8134604030c74af239181900360600190a1505050565b5f818152600260205260408120546001600160a01b0316806104cf57604051637e27328960e01b8152600481018490526024016105bf565b610642838383600161130f565b5f828152600260205260408120546001600160a01b03168015801590610f0a57506001600160a01b03851615155b15610f625760405162461bcd60e51b815260206004820152602260248201527f5342543a20736f756c2d626f756e642c207472616e736665722064697361626c604482015261195960f21b60648201526084016105bf565b610f6d858585611413565b95945050505050565b6006546001600160a01b03163314610b585760405163118cdaa760e01b81523360048201526024016105bf565b5f82610faf8584611505565b14949350505050565b600b545f906001600160401b03600160801b909104811690831610610fdf57506003919050565b600b546001600160401b03600160401b90910481169083161061100457506002919050565b600b546001600160401b039081169083161061102257506001919050565b505f919050565b610596828260405180602001604052805f815250611547565b600680546001600160a01b038381166001600160a01b0319831681179093556040519116919082907f8be0079c531659141344cd1fd0a4f28419497f9722a3daafe3b4186f6b6457e0905f90a35050565b6001600160a01b0383166110bc5760405163a9fbf51f60e01b81525f60048201526024016105bf565b6001600160a01b0382166110ee57604051630b61174360e31b81526001600160a01b03831660048201526024016105bf565b6001600160a01b038381165f81815260056020908152604080832094871680845294825291829020805460ff191686151590811790915591519182527f17307eab39ab6107e8899845ad3d59bd9653f200f220920489ca2b5937696c31910160405180910390a3505050565b6001600160a01b0383163b1561127957604051630a85bd0160e11b81526001600160a01b0384169063150b7a029061119c908890889087908790600401611caa565b6020604051808303815f875af19250505080156111d6575060408051601f3d908101601f191682019092526111d391810190611ce6565b60015b61123d573d808015611203576040519150601f19603f3d011682016040523d82523d5f602084013e611208565b606091505b5080515f0361123557604051633250574960e11b81526001600160a01b03851660048201526024016105bf565b805160208201fd5b6001600160e01b03198116630a85bd0160e11b14610af057604051633250574960e11b81526001600160a01b03851660048201526024016105bf565b5050505050565b60605f61128c8361155e565b60010190505f816001600160401b038111156112aa576112aa611a26565b6040519080825280601f01601f1916602001820160405280156112d4576020820181803683370190505b5090508181016020015b5f19016f181899199a1a9b1b9c1cb0b131b232b360811b600a86061a8153600a85049450846112de57509392505050565b808061132357506001600160a01b03821615155b156113e4575f61133284610e97565b90506001600160a01b0383161580159061135e5750826001600160a01b0316816001600160a01b031614155b8015611371575061136f8184610d07565b155b1561139a5760405163a9fbf51f60e01b81526001600160a01b03841660048201526024016105bf565b81156113e25783856001600160a01b0316826001600160a01b03167f8c5be1e5ebec7d5bd14f71427d1e84f3dd0314c0f7b2291e5b200ac8c7c3b92560405160405180910390a45b505b50505f90815260046020526040902080546001600160a01b0319166001600160a01b0392909216919091179055565b5f828152600260205260408120546001600160a01b039081169083161561143f5761143f818486611635565b6001600160a01b038116156114795761145a5f855f8061130f565b6001600160a01b0381165f90815260036020526040902080545f190190555b6001600160a01b038516156114a7576001600160a01b0385165f908152600360205260409020805460010190555b5f8481526002602052604080822080546001600160a01b0319166001600160a01b0389811691821790925591518793918516917fddf252ad1be2c89b69c2b068fc378daa952ba7f163c4a11628f55a4df523b3ef91a4949350505050565b5f81815b845181101561153f576115358286838151811061152857611528611d01565b6020026020010151611699565b9150600101611509565b509392505050565b61155183836116c2565b610642335f85858561115a565b5f8072184f03e93ff9f4daa797ed6e38ed64bf6a1f0160401b831061159c5772184f03e93ff9f4daa797ed6e38ed64bf6a1f0160401b830492506040015b6d04ee2d6d415b85acef810000000083106115c8576d04ee2d6d415b85acef8100000000830492506020015b662386f26fc1000083106115e657662386f26fc10000830492506010015b6305f5e10083106115fe576305f5e100830492506008015b612710831061161257612710830492506004015b60648310611624576064830492506002015b600a83106104cf5760010192915050565b611640838383611723565b610642576001600160a01b03831661166e57604051637e27328960e01b8152600481018290526024016105bf565b60405163177e802f60e01b81526001600160a01b0383166004820152602481018290526044016105bf565b5f8183106116b3575f828152602084905260409020610c5c565b505f9182526020526040902090565b6001600160a01b0382166116eb57604051633250574960e11b81525f60048201526024016105bf565b5f6116f783835f610edc565b90506001600160a01b03811615610642576040516339e3563760e11b81525f60048201526024016105bf565b5f6001600160a01b0383161580159061177f5750826001600160a01b0316846001600160a01b0316148061175c575061175c8484610d07565b8061177f57505f828152600460205260409020546001600160a01b038481169116145b949350505050565b6001600160e01b031981168114610d6e575f80fd5b5f602082840312156117ac575f80fd5b8135610c5c81611787565b5f5b838110156117d15781810151838201526020016117b9565b50505f910152565b5f81518084526117f08160208601602086016117b7565b601f01601f19169290920160200192915050565b602081525f610c5c60208301846117d9565b5f60208284031215611826575f80fd5b5035919050565b80356001600160a01b0381168114611843575f80fd5b919050565b5f8060408385031215611859575f80fd5b6118628361182d565b946020939093013593505050565b5f805f60608486031215611882575f80fd5b61188b8461182d565b92506118996020850161182d565b9150604084013590509250925092565b5f602082840312156118b9575f80fd5b610c5c8261182d565b80356001600160401b0381168114611843575f80fd5b5f805f604084860312156118ea575f80fd5b6118f3846118c2565b925060208401356001600160401b038082111561190e575f80fd5b818601915086601f830112611921575f80fd5b81358181111561192f575f80fd5b8760208260051b8501011115611943575f80fd5b6020830194508093505050509250925092565b634e487b7160e01b5f52602160045260245ffd5b6004811061198657634e487b7160e01b5f52602160045260245ffd5b9052565b60808101611998828761196a565b6001600160401b03948516602083015292841660408201529216606090920191909152919050565b5f80604083850312156119d1575f80fd5b6119da8361182d565b91506020830135600481106119ed575f80fd5b809150509250929050565b5f8060408385031215611a09575f80fd5b611a128361182d565b9150602083013580151581146119ed575f80fd5b634e487b7160e01b5f52604160045260245ffd5b5f805f8060808587031215611a4d575f80fd5b611a568561182d565b9350611a646020860161182d565b92506040850135915060608501356001600160401b0380821115611a86575f80fd5b818701915087601f830112611a99575f80fd5b813581811115611aab57611aab611a26565b604051601f8201601f19908116603f01168101908382118183101715611ad357611ad3611a26565b816040528281528a6020848701011115611aeb575f80fd5b826020860160208301375f60208483010152809550505050505092959194509250565b602081016104cf828461196a565b85815260a08101611b30602083018761196a565b6001600160401b0394851660408301529284166060820152921660809092019190915292915050565b5f8060408385031215611b6a575f80fd5b611b738361182d565b9150611b816020840161182d565b90509250929050565b5f805f60608486031215611b9c575f80fd5b611ba5846118c2565b9250611bb3602085016118c2565b9150611bc1604085016118c2565b90509250925092565b600181811c90821680611bde57607f821691505b602082108103611bfc57634e487b7160e01b5f52602260045260245ffd5b50919050565b5f60018201611c1f57634e487b7160e01b5f52601160045260245ffd5b5060010190565b60408101611c34828561196a565b6001600160401b03831660208301529392505050565b60608101611c58828661196a565b611c65602083018561196a565b6001600160401b0383166040830152949350505050565b5f8351611c8d8184602088016117b7565b835190830190611ca18183602088016117b7565b01949350505050565b6001600160a01b03858116825284166020820152604081018390526080606082018190525f90611cdc908301846117d9565b9695505050505050565b5f60208284031215611cf6575f80fd5b8151610c5c81611787565b634e487b7160e01b5f52603260045260245ffdfea264697066735822122054ba801073034a4068c1fbd03279808ef70bfcb21ac97b572989c7f1fd130f3e64736f6c63430008180033",
  "linkReferences": {},
  "deployedLinkReferences": {}
}